{
  "contractName": "ProductCategory",
  "abi": [
    {
      "constant": false,
      "inputs": [
        {
          "name": "name",
          "type": "string"
        },
        {
          "name": "description",
          "type": "string"
        }
      ],
      "name": "addProductCategory",
      "outputs": [
        {
          "name": "",
          "type": "uint256"
        }
      ],
      "payable": false,
      "stateMutability": "nonpayable",
      "type": "function"
    },
    {
      "constant": true,
      "inputs": [
        {
          "name": "id",
          "type": "uint256"
        }
      ],
      "name": "getProductCategoryInfo",
      "outputs": [
        {
          "name": "",
          "type": "string"
        },
        {
          "name": "",
          "type": "string"
        }
      ],
      "payable": false,
      "stateMutability": "view",
      "type": "function"
    }
  ],
  "bytecode": "0x608060405234801561001057600080fd5b506104da806100206000396000f30060806040526004361061004c576000357c0100000000000000000000000000000000000000000000000000000000900463ffffffff1680630ad4699f14610051578063e45608d914610163575b600080fd5b34801561005d57600080fd5b5061007c60048036038101908080359060200190929190505050610226565b604051808060200180602001838103835285818151815260200191508051906020019080838360005b838110156100c05780820151818401526020810190506100a5565b50505050905090810190601f1680156100ed5780820380516001836020036101000a031916815260200191505b50838103825284818151815260200191508051906020019080838360005b8381101561012657808201518184015260208101905061010b565b50505050905090810190601f1680156101535780820380516001836020036101000a031916815260200191505b5094505050505060405180910390f35b34801561016f57600080fd5b50610210600480360381019080803590602001908201803590602001908080601f0160208091040260200160405190810160405280939291908181526020018383808284378201915050505050509192919290803590602001908201803590602001908080601f016020809104026020016040519081016040528093929190818152602001838380828437820191505050505050919291929050505061038a565b6040518082815260200191505060405180910390f35b60608060006001600085815260200190815260200160002090508060000181600101818054600181600116156101000203166002900480601f0160208091040260200160405190810160405280929190818152602001828054600181600116156101000203166002900480156102dd5780601f106102b2576101008083540402835291602001916102dd565b820191906000526020600020905b8154815290600101906020018083116102c057829003601f168201915b50505050509150808054600181600116156101000203166002900480601f0160208091040260200160405190810160405280929190818152602001828054600181600116156101000203166002900480156103795780601f1061034e57610100808354040283529160200191610379565b820191906000526020600020905b81548152906001019060200180831161035c57829003601f168201915b505050505090509250925050915091565b6000604080519081016040528084815260200183815250600160008054815260200190815260200160002060008201518160000190805190602001906103d1929190610409565b5060208201518160010190805190602001906103ee929190610409565b50905050600160005401600081905550600054905092915050565b828054600181600116156101000203166002900490600052602060002090601f016020900481019282601f1061044a57805160ff1916838001178555610478565b82800160010185558215610478579182015b8281111561047757825182559160200191906001019061045c565b5b5090506104859190610489565b5090565b6104ab91905b808211156104a757600081600090555060010161048f565b5090565b905600a165627a7a72305820e284835a5d8082d01c2daab6b2d12337bb8555eaaff15bb567e72add453dd33e0029",
  "source": "pragma solidity ^0.4.4;\n\ncontract ProductCategory {\n    \n    struct ProductCategoryInfo {\n        string name;\n        string description;\n    }\n\n    uint256 categoryCount;\n    \n    mapping(uint256 => ProductCategoryInfo) productCategoryList;\n    \n    function addProductCategory(string name, string description) public returns (uint256) {\n        productCategoryList[categoryCount] = ProductCategoryInfo(name,description);\n        categoryCount = categoryCount + 1;\n        return categoryCount;\n        \n    }\n    \n    function getProductCategoryInfo(uint256 id) public view returns (string, string) {\n        ProductCategoryInfo storage categoryInfo = productCategoryList[id];\n        return (categoryInfo.name, categoryInfo.description);\n        \n    }\n}\n\ncontract ProductAuction {\n    \n    struct ProductAuctionDetail {\n        uint256 productId;\n        string productname;\n        uint256 minimumBidValue;\n        address owner;\n    }\n    \n    uint256 auctionCount;\n    \n    mapping(uint256 => ProductAuctionDetail) productAuctionList;\n    \n    function saveProductAuctionDetails(uint256 productId, string productname, uint256 minimumBidValue) public returns (uint256) {\n        auctionCount = auctionCount + 1;\n        productAuctionList[auctionCount] = ProductAuctionDetail(productId,productname,minimumBidValue, msg.sender);\n        return auctionCount;\n        \n    }\n    \n    function getProductAuctionInfoById(uint256 id) public view returns (string, uint256) {\n        ProductAuctionDetail storage auctionInfo = productAuctionList[id];\n        return (auctionInfo.productname, auctionInfo.minimumBidValue);\n    }\n}\n\n\ncontract ProductAuctionBidding {\n  \n    struct AuctionHighestBidder {\n        address highestBidder;\n        uint256 highestBidValue;\n    }\n    \n    //Add few default auctions in constructor\n    function ProductBidding() {\n        ProductAuction auction = new ProductAuction();\n        auction.saveProductAuctionDetails(1, \"Mobile 1\", 100);\n        auction.saveProductAuctionDetails(2, \"Mobile 2\", 200);\n        auction.saveProductAuctionDetails(3, \"Mobile 3\", 300);\n    }\n    \n    /*Highest Bidder details for particular auction id*/\n    mapping (uint256 => AuctionHighestBidder) auctionHighestBidder;\n    \n    /*auction_id -> User_Address -> Bid Amount - Storing bids for given auction id */\n    mapping (uint256 => mapping (address => uint256)) auctionBidsByUserList;\n    \n    /*User Address --> auction_id -> BidValue  - User can bid for many auctions*/\n    mapping (address => mapping (uint256 => uint256)) userBidsForAuctionList;\n    \n    function createTestRecordsForBidding() {\n        ProductAuction auction = new ProductAuction();\n        auction.saveProductAuctionDetails(1, \"Mobile 1\", 100);\n        auction.saveProductAuctionDetails(2, \"Mobile 2\", 200);\n        auction.saveProductAuctionDetails(3, \"Mobile 3\", 300);\n    }\n    \n    function saveUserBidForAuction(uint256 auctionId, uint256 bidValue) public returns (uint256) {\n        AuctionHighestBidder bidder = auctionHighestBidder[auctionId];\n        if (bidder.highestBidValue < bidValue) {\n            bidder.highestBidValue = bidValue;\n            bidder.highestBidder = msg.sender;\n            auctionHighestBidder[auctionId] = bidder;\n        }\n        auctionBidsByUserList[auctionId][msg.sender] = bidValue;\n        userBidsForAuctionList[msg.sender][auctionId] = bidValue;\n        return bidValue;\n    }\n    \n    /*\n    This function gives me details of higher bidder at any point of time\n    */\n    function getHighestBidderByAuctionId(uint256 auctionId) public returns (address, uint256) {\n        AuctionHighestBidder storage bidder = auctionHighestBidder[auctionId];\n        return (bidder.highestBidder, bidder.highestBidValue);\n    }\n    \n    /*\n    Announce the winner and deactivate auction\n    Need help - how to disable cross contract communication\n    */\n    function announceWinnerForAuction(uint256 auctionId) public returns (address, uint256) {\n        AuctionHighestBidder storage bidder = auctionHighestBidder[auctionId];\n        //Deduct coin amount from his wallet..TO DO: take help from mentor\n        //learn how to delete bid from system -- To do: take help from mentor\n       // auctionHighestBidder[auctionId] = 0; \n        //auctionBidsByUserList[auctionId] = 0;\n        return (bidder.highestBidder, bidder.highestBidValue);\n    }\n    \n \n    /*\n        Get Auction details by auction id -- not working unless we solve problem of cross \n        contract communication\n    */\n    function getAuctionDetailsByAuctionId(uint256 auctionId) public returns (string, uint256) {\n        ProductAuction auction = new ProductAuction();\n        string memory productname;\n        uint256 bidValue;\n        (productname, bidValue) = auction.getProductAuctionInfoById(auctionId);\n        return (productname, bidValue);\n    }\n    /*\n    Below functionality needs to be fixed - \n    I should be able to return the list of bidders by Product Id.\n    */\n    function getBidListByProductId(uint256 productId) public returns (uint256) {\n        mapping (address => uint256) userList= auctionBidsByUserList[productId];\n        return userList[msg.sender];\n    }\n}",
  "sourcePath": "c:\\auction\\contracts\\Auction.sol",
  "compiler": {
    "name": "solc",
    "version": "0.4.24+commit.e67f0147.Emscripten.clang"
  },
  "schemaVersion": "2.0.1",
  "updatedAt": "2018-07-27T12:23:07.287Z"
}