{
  "contractName": "ProductAuctionBidding",
  "abi": [
    {
      "constant": false,
      "inputs": [],
      "name": "ProductBidding",
      "outputs": [],
      "payable": false,
      "stateMutability": "nonpayable",
      "type": "function"
    },
    {
      "constant": false,
      "inputs": [],
      "name": "createTestRecordsForBidding",
      "outputs": [],
      "payable": false,
      "stateMutability": "nonpayable",
      "type": "function"
    },
    {
      "constant": false,
      "inputs": [
        {
          "name": "auctionId",
          "type": "uint256"
        },
        {
          "name": "bidValue",
          "type": "uint256"
        }
      ],
      "name": "saveUserBidForAuction",
      "outputs": [
        {
          "name": "",
          "type": "uint256"
        }
      ],
      "payable": false,
      "stateMutability": "nonpayable",
      "type": "function"
    },
    {
      "constant": false,
      "inputs": [
        {
          "name": "auctionId",
          "type": "uint256"
        }
      ],
      "name": "getHighestBidderByAuctionId",
      "outputs": [
        {
          "name": "",
          "type": "address"
        },
        {
          "name": "",
          "type": "uint256"
        }
      ],
      "payable": false,
      "stateMutability": "nonpayable",
      "type": "function"
    },
    {
      "constant": false,
      "inputs": [
        {
          "name": "auctionId",
          "type": "uint256"
        }
      ],
      "name": "announceWinnerForAuction",
      "outputs": [
        {
          "name": "",
          "type": "address"
        },
        {
          "name": "",
          "type": "uint256"
        }
      ],
      "payable": false,
      "stateMutability": "nonpayable",
      "type": "function"
    },
    {
      "constant": false,
      "inputs": [
        {
          "name": "auctionId",
          "type": "uint256"
        }
      ],
      "name": "getAuctionDetailsByAuctionId",
      "outputs": [
        {
          "name": "",
          "type": "string"
        },
        {
          "name": "",
          "type": "uint256"
        }
      ],
      "payable": false,
      "stateMutability": "nonpayable",
      "type": "function"
    },
    {
      "constant": false,
      "inputs": [
        {
          "name": "productId",
          "type": "uint256"
        }
      ],
      "name": "getBidListByProductId",
      "outputs": [
        {
          "name": "",
          "type": "uint256"
        }
      ],
      "payable": false,
      "stateMutability": "nonpayable",
      "type": "function"
    }
  ],
  "bytecode": "0x608060405234801561001057600080fd5b50611122806100206000396000f300608060405260043610610083576000357c0100000000000000000000000000000000000000000000000000000000900463ffffffff1680631586b46314610088578063193012691461009f57806379f79de9146100b6578063a9672bad1461012a578063b3b6d29c1461019e578063dd8663d11461024b578063df4c8b351461028c575b600080fd5b34801561009457600080fd5b5061009d6102d7565b005b3480156100ab57600080fd5b506100b46105ce565b005b3480156100c257600080fd5b506100e1600480360381019080803590602001909291905050506108c5565b604051808373ffffffffffffffffffffffffffffffffffffffff1673ffffffffffffffffffffffffffffffffffffffff1681526020018281526020019250505060405180910390f35b34801561013657600080fd5b5061015560048036038101908080359060200190929190505050610912565b604051808373ffffffffffffffffffffffffffffffffffffffff1673ffffffffffffffffffffffffffffffffffffffff1681526020018281526020019250505060405180910390f35b3480156101aa57600080fd5b506101c96004803603810190808035906020019092919050505061095f565b6040518080602001838152602001828103825284818151815260200191508051906020019080838360005b8381101561020f5780820151818401526020810190506101f4565b50505050905090810190601f16801561023c5780820380516001836020036101000a031916815260200191505b50935050505060405180910390f35b34801561025757600080fd5b5061027660048036038101908080359060200190929190505050610ab2565b6040518082815260200191505060405180910390f35b34801561029857600080fd5b506102c16004803603810190808035906020019092919080359060200190929190505050610b11565b6040518082815260200191505060405180910390f35b60006102e1610cbc565b604051809103906000f0801580156102fd573d6000803e3d6000fd5b5090508073ffffffffffffffffffffffffffffffffffffffff16631ff7c619600160646040518363ffffffff167c01000000000000000000000000000000000000000000000000000000000281526004018083815260200180602001838152602001828103825260088152602001807f4d6f62696c6520310000000000000000000000000000000000000000000000008152506020019350505050602060405180830381600087803b1580156103b257600080fd5b505af11580156103c6573d6000803e3d6000fd5b505050506040513d60208110156103dc57600080fd5b8101908080519060200190929190505050508073ffffffffffffffffffffffffffffffffffffffff16631ff7c619600260c86040518363ffffffff167c01000000000000000000000000000000000000000000000000000000000281526004018083815260200180602001838152602001828103825260088152602001807f4d6f62696c6520320000000000000000000000000000000000000000000000008152506020019350505050602060405180830381600087803b1580156104a057600080fd5b505af11580156104b4573d6000803e3d6000fd5b505050506040513d60208110156104ca57600080fd5b8101908080519060200190929190505050508073ffffffffffffffffffffffffffffffffffffffff16631ff7c619600361012c6040518363ffffffff167c01000000000000000000000000000000000000000000000000000000000281526004018083815260200180602001838152602001828103825260088152602001807f4d6f62696c6520330000000000000000000000000000000000000000000000008152506020019350505050602060405180830381600087803b15801561058f57600080fd5b505af11580156105a3573d6000803e3d6000fd5b505050506040513d60208110156105b957600080fd5b81019080805190602001909291905050505050565b60006105d8610cbc565b604051809103906000f0801580156105f4573d6000803e3d6000fd5b5090508073ffffffffffffffffffffffffffffffffffffffff16631ff7c619600160646040518363ffffffff167c01000000000000000000000000000000000000000000000000000000000281526004018083815260200180602001838152602001828103825260088152602001807f4d6f62696c6520310000000000000000000000000000000000000000000000008152506020019350505050602060405180830381600087803b1580156106a957600080fd5b505af11580156106bd573d6000803e3d6000fd5b505050506040513d60208110156106d357600080fd5b8101908080519060200190929190505050508073ffffffffffffffffffffffffffffffffffffffff16631ff7c619600260c86040518363ffffffff167c01000000000000000000000000000000000000000000000000000000000281526004018083815260200180602001838152602001828103825260088152602001807f4d6f62696c6520320000000000000000000000000000000000000000000000008152506020019350505050602060405180830381600087803b15801561079757600080fd5b505af11580156107ab573d6000803e3d6000fd5b505050506040513d60208110156107c157600080fd5b8101908080519060200190929190505050508073ffffffffffffffffffffffffffffffffffffffff16631ff7c619600361012c6040518363ffffffff167c01000000000000000000000000000000000000000000000000000000000281526004018083815260200180602001838152602001828103825260088152602001807f4d6f62696c6520330000000000000000000000000000000000000000000000008152506020019350505050602060405180830381600087803b15801561088657600080fd5b505af115801561089a573d6000803e3d6000fd5b505050506040513d60208110156108b057600080fd5b81019080805190602001909291905050505050565b600080600080600085815260200190815260200160002090508060000160009054906101000a900473ffffffffffffffffffffffffffffffffffffffff1681600101549250925050915091565b600080600080600085815260200190815260200160002090508060000160009054906101000a900473ffffffffffffffffffffffffffffffffffffffff1681600101549250925050915091565b606060008060606000610970610cbc565b604051809103906000f08015801561098c573d6000803e3d6000fd5b5092508273ffffffffffffffffffffffffffffffffffffffff16633cf0a8fe876040518263ffffffff167c010000000000000000000000000000000000000000000000000000000002815260040180828152602001915050600060405180830381600087803b1580156109fe57600080fd5b505af1158015610a12573d6000803e3d6000fd5b505050506040513d6000823e3d601f19601f820116820180604052506040811015610a3c57600080fd5b810190808051640100000000811115610a5457600080fd5b82810190506020810184811115610a6a57600080fd5b8151856001820283011164010000000082111715610a8757600080fd5b5050929190602001805190602001909291905050508092508193505050818194509450505050915091565b6000806001600084815260200190815260200160002090508060003373ffffffffffffffffffffffffffffffffffffffff1673ffffffffffffffffffffffffffffffffffffffff16815260200190815260200160002054915050919050565b60008060008085815260200190815260200160002090508281600101541015610c0857828160010181905550338160000160006101000a81548173ffffffffffffffffffffffffffffffffffffffff021916908373ffffffffffffffffffffffffffffffffffffffff160217905550806000808681526020019081526020016000206000820160009054906101000a900473ffffffffffffffffffffffffffffffffffffffff168160000160006101000a81548173ffffffffffffffffffffffffffffffffffffffff021916908373ffffffffffffffffffffffffffffffffffffffff160217905550600182015481600101559050505b826001600086815260200190815260200160002060003373ffffffffffffffffffffffffffffffffffffffff1673ffffffffffffffffffffffffffffffffffffffff1681526020019081526020016000208190555082600260003373ffffffffffffffffffffffffffffffffffffffff1673ffffffffffffffffffffffffffffffffffffffff1681526020019081526020016000206000868152602001908152602001600020819055508291505092915050565b60405161042a80610ccd833901905600608060405234801561001057600080fd5b5061040a806100206000396000f30060806040526004361061004c576000357c0100000000000000000000000000000000000000000000000000000000900463ffffffff1680631ff7c619146100515780633cf0a8fe146100e2575b600080fd5b34801561005d57600080fd5b506100cc60048036038101908080359060200190929190803590602001908201803590602001908080601f01602080910402602001604051908101604052809392919081815260200183838082843782019150505050505091929192908035906020019092919050505061018f565b6040518082815260200191505060405180910390f35b3480156100ee57600080fd5b5061010d60048036038101908080359060200190929190505050610270565b6040518080602001838152602001828103825284818151815260200191508051906020019080838360005b83811015610153578082015181840152602081019050610138565b50505050905090810190601f1680156101805780820380516001836020036101000a031916815260200191505b50935050505060405180910390f35b60006001600054016000819055506080604051908101604052808581526020018481526020018381526020013373ffffffffffffffffffffffffffffffffffffffff16815250600160008054815260200190815260200160002060008201518160000155602082015181600101908051906020019061020f929190610339565b506040820151816002015560608201518160030160006101000a81548173ffffffffffffffffffffffffffffffffffffffff021916908373ffffffffffffffffffffffffffffffffffffffff16021790555090505060005490509392505050565b6060600080600160008581526020019081526020016000209050806001018160020154818054600181600116156101000203166002900480601f0160208091040260200160405190810160405280929190818152602001828054600181600116156101000203166002900480156103285780601f106102fd57610100808354040283529160200191610328565b820191906000526020600020905b81548152906001019060200180831161030b57829003601f168201915b505050505091509250925050915091565b828054600181600116156101000203166002900490600052602060002090601f016020900481019282601f1061037a57805160ff19168380011785556103a8565b828001600101855582156103a8579182015b828111156103a757825182559160200191906001019061038c565b5b5090506103b591906103b9565b5090565b6103db91905b808211156103d75760008160009055506001016103bf565b5090565b905600a165627a7a723058202a96a1d21bb717a9a941006b02ba238100ee6dbe2288d1eee619378cd36492640029a165627a7a723058204b8bc1fbfa910b1db4fe5bc5bc38f5437ccb777f2e815036af9ef7901f1961960029",
  "source": "pragma solidity ^0.4.4;\n\ncontract ProductAuction {\n    \n    struct ProductAuctionDetail {\n        uint256 productId;\n        string productname;\n        uint256 minimumBidValue;\n        address owner;\n    }\n    \n    uint256 auctionCount;\n    \n    mapping(uint256 => ProductAuctionDetail) productAuctionList;\n    \n    function saveProductAuctionDetails(uint256 productId, string productname, uint256 minimumBidValue) public returns (uint256) {\n        auctionCount = auctionCount + 1;\n        productAuctionList[auctionCount] = ProductAuctionDetail(productId,productname,minimumBidValue, msg.sender);\n        return auctionCount;\n        \n    }\n    \n    function getProductAuctionInfoById(uint256 id) public view returns (string, uint256) {\n        ProductAuctionDetail storage auctionInfo = productAuctionList[id];\n        return (auctionInfo.productname, auctionInfo.minimumBidValue);\n    }\n}\n\n\ncontract ProductAuctionBidding {\n  \n    struct AuctionHighestBidder {\n        address highestBidder;\n        uint256 highestBidValue;\n    }\n    \n    //Add few default auctions in constructor\n    function ProductBidding() {\n        ProductAuction auction = new ProductAuction();\n        auction.saveProductAuctionDetails(1, \"Mobile 1\", 100);\n        auction.saveProductAuctionDetails(2, \"Mobile 2\", 200);\n        auction.saveProductAuctionDetails(3, \"Mobile 3\", 300);\n    }\n    \n    /*Highest Bidder details for particular auction id*/\n    mapping (uint256 => AuctionHighestBidder) auctionHighestBidder;\n    \n    /*auction_id -> User_Address -> Bid Amount - Storing bids for given auction id */\n    mapping (uint256 => mapping (address => uint256)) auctionBidsByUserList;\n    \n    /*User Address --> auction_id -> BidValue  - User can bid for many auctions*/\n    mapping (address => mapping (uint256 => uint256)) userBidsForAuctionList;\n    \n    function createTestRecordsForBidding() {\n        ProductAuction auction = new ProductAuction();\n        auction.saveProductAuctionDetails(1, \"Mobile 1\", 100);\n        auction.saveProductAuctionDetails(2, \"Mobile 2\", 200);\n        auction.saveProductAuctionDetails(3, \"Mobile 3\", 300);\n    }\n    \n    function saveUserBidForAuction(uint256 auctionId, uint256 bidValue) public returns (uint256) {\n        AuctionHighestBidder bidder = auctionHighestBidder[auctionId];\n        if (bidder.highestBidValue < bidValue) {\n            bidder.highestBidValue = bidValue;\n            bidder.highestBidder = msg.sender;\n            auctionHighestBidder[auctionId] = bidder;\n        }\n        auctionBidsByUserList[auctionId][msg.sender] = bidValue;\n        userBidsForAuctionList[msg.sender][auctionId] = bidValue;\n        return bidValue;\n    }\n    \n    /*\n    This function gives me details of higher bidder at any point of time\n    */\n    function getHighestBidderByAuctionId(uint256 auctionId) public returns (address, uint256) {\n        AuctionHighestBidder storage bidder = auctionHighestBidder[auctionId];\n        return (bidder.highestBidder, bidder.highestBidValue);\n    }\n    \n    /*\n    Announce the winner and deactivate auction\n    Need help - how to disable cross contract communication\n    */\n    function announceWinnerForAuction(uint256 auctionId) public returns (address, uint256) {\n        AuctionHighestBidder storage bidder = auctionHighestBidder[auctionId];\n        //Deduct coin amount from his wallet..TO DO: take help from mentor\n        //learn how to delete bid from system -- To do: take help from mentor\n       // auctionHighestBidder[auctionId] = 0; \n        //auctionBidsByUserList[auctionId] = 0;\n        return (bidder.highestBidder, bidder.highestBidValue);\n    }\n    \n \n    /*\n        Get Auction details by auction id -- not working unless we solve problem of cross \n        contract communication\n    */\n    function getAuctionDetailsByAuctionId(uint256 auctionId) public returns (string, uint256) {\n        ProductAuction auction = new ProductAuction();\n        string memory productname;\n        uint256 bidValue;\n        (productname, bidValue) = auction.getProductAuctionInfoById(auctionId);\n        return (productname, bidValue);\n    }\n    /*\n    Below functionality needs to be fixed - \n    I should be able to return the list of bidders by Product Id.\n    */\n    function getBidListByProductId(uint256 productId) public returns (uint256) {\n        mapping (address => uint256) userList= auctionBidsByUserList[productId];\n        return userList[msg.sender];\n    }\n}",
  "sourcePath": "c:\\auction\\contracts\\Auction.sol",
  "compiler": {
    "name": "solc",
    "version": "0.4.24+commit.e67f0147.Emscripten.clang"
  },
  "schemaVersion": "2.0.1",
  "updatedAt": "2018-07-27T12:34:06.569Z"
}